{
  "contractName": "CoToken",
  "abi": [
    {
      "constant": false,
      "inputs": [],
      "name": "renounceOwnership",
      "outputs": [],
      "payable": false,
      "stateMutability": "nonpayable",
      "type": "function"
    },
    {
      "constant": true,
      "inputs": [],
      "name": "owner",
      "outputs": [
        {
          "name": "",
          "type": "address"
        }
      ],
      "payable": false,
      "stateMutability": "view",
      "type": "function"
    },
    {
      "constant": true,
      "inputs": [],
      "name": "isOwner",
      "outputs": [
        {
          "name": "",
          "type": "bool"
        }
      ],
      "payable": false,
      "stateMutability": "view",
      "type": "function"
    },
    {
      "constant": true,
      "inputs": [],
      "name": "_owner",
      "outputs": [
        {
          "name": "",
          "type": "address"
        }
      ],
      "payable": false,
      "stateMutability": "view",
      "type": "function"
    },
    {
      "constant": false,
      "inputs": [
        {
          "name": "newOwner",
          "type": "address"
        }
      ],
      "name": "transferOwnership",
      "outputs": [],
      "payable": false,
      "stateMutability": "nonpayable",
      "type": "function"
    },
    {
      "inputs": [
        {
          "name": "totalSupply",
          "type": "uint256"
        },
        {
          "name": "name",
          "type": "string"
        },
        {
          "name": "symbol",
          "type": "string"
        },
        {
          "name": "decimals",
          "type": "uint8"
        }
      ],
      "payable": false,
      "stateMutability": "nonpayable",
      "type": "constructor"
    },
    {
      "anonymous": false,
      "inputs": [
        {
          "indexed": true,
          "name": "previousOwner",
          "type": "address"
        },
        {
          "indexed": true,
          "name": "newOwner",
          "type": "address"
        }
      ],
      "name": "OwnershipTransferred",
      "type": "event"
    },
    {
      "anonymous": false,
      "inputs": [
        {
          "indexed": true,
          "name": "from",
          "type": "address"
        },
        {
          "indexed": true,
          "name": "to",
          "type": "address"
        },
        {
          "indexed": false,
          "name": "value",
          "type": "uint256"
        }
      ],
      "name": "Transfer",
      "type": "event"
    },
    {
      "anonymous": false,
      "inputs": [
        {
          "indexed": true,
          "name": "owner",
          "type": "address"
        },
        {
          "indexed": true,
          "name": "spender",
          "type": "address"
        },
        {
          "indexed": false,
          "name": "value",
          "type": "uint256"
        }
      ],
      "name": "Approval",
      "type": "event"
    },
    {
      "constant": true,
      "inputs": [],
      "name": "name",
      "outputs": [
        {
          "name": "",
          "type": "string"
        }
      ],
      "payable": false,
      "stateMutability": "view",
      "type": "function"
    },
    {
      "constant": true,
      "inputs": [],
      "name": "symbol",
      "outputs": [
        {
          "name": "",
          "type": "string"
        }
      ],
      "payable": false,
      "stateMutability": "view",
      "type": "function"
    },
    {
      "constant": true,
      "inputs": [],
      "name": "decimals",
      "outputs": [
        {
          "name": "",
          "type": "uint8"
        }
      ],
      "payable": false,
      "stateMutability": "view",
      "type": "function"
    },
    {
      "constant": true,
      "inputs": [],
      "name": "totalSupply",
      "outputs": [
        {
          "name": "",
          "type": "uint256"
        }
      ],
      "payable": false,
      "stateMutability": "view",
      "type": "function"
    },
    {
      "constant": true,
      "inputs": [
        {
          "name": "account",
          "type": "address"
        }
      ],
      "name": "balanceOf",
      "outputs": [
        {
          "name": "",
          "type": "uint256"
        }
      ],
      "payable": false,
      "stateMutability": "view",
      "type": "function"
    },
    {
      "constant": false,
      "inputs": [
        {
          "name": "recipient",
          "type": "address"
        },
        {
          "name": "amount",
          "type": "uint256"
        }
      ],
      "name": "transfer",
      "outputs": [
        {
          "name": "",
          "type": "bool"
        }
      ],
      "payable": false,
      "stateMutability": "nonpayable",
      "type": "function"
    },
    {
      "constant": false,
      "inputs": [
        {
          "name": "spender",
          "type": "address"
        },
        {
          "name": "amount",
          "type": "uint256"
        }
      ],
      "name": "approve",
      "outputs": [
        {
          "name": "",
          "type": "bool"
        }
      ],
      "payable": false,
      "stateMutability": "nonpayable",
      "type": "function"
    },
    {
      "constant": false,
      "inputs": [
        {
          "name": "sender",
          "type": "address"
        },
        {
          "name": "recipient",
          "type": "address"
        },
        {
          "name": "amount",
          "type": "uint256"
        }
      ],
      "name": "transferFrom",
      "outputs": [
        {
          "name": "",
          "type": "bool"
        }
      ],
      "payable": false,
      "stateMutability": "nonpayable",
      "type": "function"
    },
    {
      "constant": true,
      "inputs": [
        {
          "name": "owner",
          "type": "address"
        },
        {
          "name": "spender",
          "type": "address"
        }
      ],
      "name": "allowance",
      "outputs": [
        {
          "name": "",
          "type": "uint256"
        }
      ],
      "payable": false,
      "stateMutability": "view",
      "type": "function"
    },
    {
      "constant": true,
      "inputs": [
        {
          "name": "_n",
          "type": "uint256"
        }
      ],
      "name": "buyPrice",
      "outputs": [
        {
          "name": "",
          "type": "uint256"
        }
      ],
      "payable": false,
      "stateMutability": "view",
      "type": "function"
    },
    {
      "constant": true,
      "inputs": [
        {
          "name": "_n",
          "type": "uint256"
        }
      ],
      "name": "sellPrice",
      "outputs": [
        {
          "name": "",
          "type": "uint256"
        }
      ],
      "payable": false,
      "stateMutability": "view",
      "type": "function"
    },
    {
      "constant": false,
      "inputs": [
        {
          "name": "_n",
          "type": "uint256"
        }
      ],
      "name": "mint",
      "outputs": [],
      "payable": true,
      "stateMutability": "payable",
      "type": "function"
    },
    {
      "constant": false,
      "inputs": [
        {
          "name": "_n",
          "type": "uint256"
        }
      ],
      "name": "burn",
      "outputs": [],
      "payable": false,
      "stateMutability": "nonpayable",
      "type": "function"
    },
    {
      "constant": false,
      "inputs": [],
      "name": "destroy",
      "outputs": [],
      "payable": false,
      "stateMutability": "nonpayable",
      "type": "function"
    }
  ],
  "bytecode": "0x60806040523480156200001157600080fd5b5060405162001d1d38038062001d1d833981018060405260808110156200003757600080fd5b810190808051906020019092919080516401000000008111156200005a57600080fd5b828101905060208101848111156200007157600080fd5b81518560018202830111640100000000821117156200008f57600080fd5b50509291906020018051640100000000811115620000ac57600080fd5b82810190506020810184811115620000c357600080fd5b8151856001820283011164010000000082111715620000e157600080fd5b505092919060200180519060200190929190505050336000806101000a81548173ffffffffffffffffffffffffffffffffffffffff021916908373ffffffffffffffffffffffffffffffffffffffff1602179055506000809054906101000a900473ffffffffffffffffffffffffffffffffffffffff1673ffffffffffffffffffffffffffffffffffffffff16600073ffffffffffffffffffffffffffffffffffffffff167f8be0079c531659141344cd1fd0a4f28419497f9722a3daafe3b4186f6b6457e060405160405180910390a38360018190555083600560003373ffffffffffffffffffffffffffffffffffffffff1673ffffffffffffffffffffffffffffffffffffffff1681526020019081526020016000208190555082600290805190602001906200021592919062000295565b5081600390805190602001906200022e92919062000295565b5080600460006101000a81548160ff021916908360ff16021790555033600460016101000a81548173ffffffffffffffffffffffffffffffffffffffff021916908373ffffffffffffffffffffffffffffffffffffffff1602179055505050505062000344565b828054600181600116156101000203166002900490600052602060002090601f016020900481019282601f10620002d857805160ff191683800117855562000309565b8280016001018555821562000309579182015b8281111562000308578251825591602001919060010190620002eb565b5b5090506200031891906200031c565b5090565b6200034191905b808211156200033d57600081600090555060010162000323565b5090565b90565b6119c980620003546000396000f3fe6080604052600436106101145760003560e01c80638da5cb5b116100a0578063a9059cbb11610064578063a9059cbb1461056c578063b2bdfa7b146105df578063c4dbf62214610636578063dd62ed3e14610685578063f2fde38b1461070a57610114565b80638da5cb5b146103d95780638f32d59b14610430578063911e279c1461045f57806395d89b41146104ae578063a0712d681461053e57610114565b8063313ce567116100e7578063313ce567146102da57806342966c681461030b57806370a0823114610346578063715018a6146103ab57806383197ef0146103c257610114565b806306fdde0314610119578063095ea7b3146101a957806318160ddd1461021c57806323b872dd14610247575b600080fd5b34801561012557600080fd5b5061012e61075b565b6040518080602001828103825283818151815260200191508051906020019080838360005b8381101561016e578082015181840152602081019050610153565b50505050905090810190601f16801561019b5780820380516001836020036101000a031916815260200191505b509250505060405180910390f35b3480156101b557600080fd5b50610202600480360360408110156101cc57600080fd5b81019080803573ffffffffffffffffffffffffffffffffffffffff169060200190929190803590602001909291905050506107fd565b604051808215151515815260200191505060405180910390f35b34801561022857600080fd5b506102316108db565b6040518082815260200191505060405180910390f35b34801561025357600080fd5b506102c06004803603606081101561026a57600080fd5b81019080803573ffffffffffffffffffffffffffffffffffffffff169060200190929190803573ffffffffffffffffffffffffffffffffffffffff169060200190929190803590602001909291905050506108e5565b604051808215151515815260200191505060405180910390f35b3480156102e657600080fd5b506102ef610af2565b604051808260ff1660ff16815260200191505060405180910390f35b34801561031757600080fd5b506103446004803603602081101561032e57600080fd5b8101908080359060200190929190505050610b09565b005b34801561035257600080fd5b506103956004803603602081101561036957600080fd5b81019080803573ffffffffffffffffffffffffffffffffffffffff169060200190929190505050610d60565b6040518082815260200191505060405180910390f35b3480156103b757600080fd5b506103c0610da9565b005b3480156103ce57600080fd5b506103d7610ee2565b005b3480156103e557600080fd5b506103ee611040565b604051808273ffffffffffffffffffffffffffffffffffffffff1673ffffffffffffffffffffffffffffffffffffffff16815260200191505060405180910390f35b34801561043c57600080fd5b50610445611069565b604051808215151515815260200191505060405180910390f35b34801561046b57600080fd5b506104986004803603602081101561048257600080fd5b81019080803590602001909291905050506110c0565b6040518082815260200191505060405180910390f35b3480156104ba57600080fd5b506104c3611119565b6040518080602001828103825283818151815260200191508051906020019080838360005b838110156105035780820151818401526020810190506104e8565b50505050905090810190601f1680156105305780820380516001836020036101000a031916815260200191505b509250505060405180910390f35b61056a6004803603602081101561055457600080fd5b81019080803590602001909291905050506111bb565b005b34801561057857600080fd5b506105c56004803603604081101561058f57600080fd5b81019080803573ffffffffffffffffffffffffffffffffffffffff169060200190929190803590602001909291905050506113fa565b604051808215151515815260200191505060405180910390f35b3480156105eb57600080fd5b506105f46114f0565b604051808273ffffffffffffffffffffffffffffffffffffffff1673ffffffffffffffffffffffffffffffffffffffff16815260200191505060405180910390f35b34801561064257600080fd5b5061066f6004803603602081101561065957600080fd5b8101908080359060200190929190505050611516565b6040518082815260200191505060405180910390f35b34801561069157600080fd5b506106f4600480360360408110156106a857600080fd5b81019080803573ffffffffffffffffffffffffffffffffffffffff169060200190929190803573ffffffffffffffffffffffffffffffffffffffff16906020019092919050505061156d565b6040518082815260200191505060405180910390f35b34801561071657600080fd5b506107596004803603602081101561072d57600080fd5b81019080803573ffffffffffffffffffffffffffffffffffffffff1690602001909291905050506115f4565b005b606060028054600181600116156101000203166002900480601f0160208091040260200160405190810160405280929190818152602001828054600181600116156101000203166002900480156107f35780601f106107c8576101008083540402835291602001916107f3565b820191906000526020600020905b8154815290600101906020018083116107d657829003601f168201915b5050505050905090565b600081600560003373ffffffffffffffffffffffffffffffffffffffff1673ffffffffffffffffffffffffffffffffffffffff1681526020019081526020016000205411156108d05781600660003373ffffffffffffffffffffffffffffffffffffffff1673ffffffffffffffffffffffffffffffffffffffff16815260200190815260200160002060008573ffffffffffffffffffffffffffffffffffffffff1673ffffffffffffffffffffffffffffffffffffffff16815260200190815260200160002081905550600190506108d5565b600090505b92915050565b6000600154905090565b600081600660008673ffffffffffffffffffffffffffffffffffffffff1673ffffffffffffffffffffffffffffffffffffffff16815260200190815260200160002060008573ffffffffffffffffffffffffffffffffffffffff1673ffffffffffffffffffffffffffffffffffffffff1681526020019081526020016000205410610ae65781600560008673ffffffffffffffffffffffffffffffffffffffff1673ffffffffffffffffffffffffffffffffffffffff1681526020019081526020016000205410610add5781600560008673ffffffffffffffffffffffffffffffffffffffff1673ffffffffffffffffffffffffffffffffffffffff1681526020019081526020016000206000828254039250508190555081600560008573ffffffffffffffffffffffffffffffffffffffff1673ffffffffffffffffffffffffffffffffffffffff1681526020019081526020016000206000828254019250508190555081600660008673ffffffffffffffffffffffffffffffffffffffff1673ffffffffffffffffffffffffffffffffffffffff16815260200190815260200160002060008573ffffffffffffffffffffffffffffffffffffffff1673ffffffffffffffffffffffffffffffffffffffff1681526020019081526020016000206000828254039250508190555060019050610aeb565b60009050610aeb565b600090505b9392505050565b6000600460009054906101000a900460ff16905090565b600460019054906101000a900473ffffffffffffffffffffffffffffffffffffffff1673ffffffffffffffffffffffffffffffffffffffff163373ffffffffffffffffffffffffffffffffffffffff1614610baf576040517f08c379a00000000000000000000000000000000000000000000000000000000081526004018080602001828103825260278152602001806119776027913960400191505060405180910390fd5b80600560003373ffffffffffffffffffffffffffffffffffffffff1673ffffffffffffffffffffffffffffffffffffffff168152602001908152602001600020541015610c47576040517f08c379a00000000000000000000000000000000000000000000000000000000081526004018080602001828103825260228152602001806118f66022913960400191505060405180910390fd5b610c5c8160015461167a90919063ffffffff16565b600181905550610cb481600560003373ffffffffffffffffffffffffffffffffffffffff1673ffffffffffffffffffffffffffffffffffffffff1681526020019081526020016000205461167a90919063ffffffff16565b600560003373ffffffffffffffffffffffffffffffffffffffff1673ffffffffffffffffffffffffffffffffffffffff16815260200190815260200160002081905550600073ffffffffffffffffffffffffffffffffffffffff163373ffffffffffffffffffffffffffffffffffffffff167fddf252ad1be2c89b69c2b068fc378daa952ba7f163c4a11628f55a4df523b3ef836040518082815260200191505060405180910390a350565b6000600560008373ffffffffffffffffffffffffffffffffffffffff1673ffffffffffffffffffffffffffffffffffffffff168152602001908152602001600020549050919050565b610db1611069565b610e23576040517f08c379a00000000000000000000000000000000000000000000000000000000081526004018080602001828103825260208152602001807f4f776e61626c653a2063616c6c6572206973206e6f7420746865206f776e657281525060200191505060405180910390fd5b600073ffffffffffffffffffffffffffffffffffffffff166000809054906101000a900473ffffffffffffffffffffffffffffffffffffffff1673ffffffffffffffffffffffffffffffffffffffff167f8be0079c531659141344cd1fd0a4f28419497f9722a3daafe3b4186f6b6457e060405160405180910390a360008060006101000a81548173ffffffffffffffffffffffffffffffffffffffff021916908373ffffffffffffffffffffffffffffffffffffffff160217905550565b600460019054906101000a900473ffffffffffffffffffffffffffffffffffffffff1673ffffffffffffffffffffffffffffffffffffffff163373ffffffffffffffffffffffffffffffffffffffff1614610f88576040517f08c379a00000000000000000000000000000000000000000000000000000000081526004018080602001828103825260308152602001806119186030913960400191505060405180910390fd5b610f906108db565b600560003373ffffffffffffffffffffffffffffffffffffffff1673ffffffffffffffffffffffffffffffffffffffff1681526020019081526020016000205414611026576040517f08c379a000000000000000000000000000000000000000000000000000000000815260040180806020018281038252602f815260200180611948602f913960400191505060405180910390fd5b600073ffffffffffffffffffffffffffffffffffffffff16ff5b60008060009054906101000a900473ffffffffffffffffffffffffffffffffffffffff16905090565b60008060009054906101000a900473ffffffffffffffffffffffffffffffffffffffff1673ffffffffffffffffffffffffffffffffffffffff163373ffffffffffffffffffffffffffffffffffffffff1614905090565b6000806001836110ce6108db565b0303905060006702c68af0bb14000090506000600190505b6001850181101561110e57808301662386f26fc10000028201915080806001019150506110e6565b508092505050919050565b606060038054600181600116156101000203166002900480601f0160208091040260200160405190810160405280929190818152602001828054600181600116156101000203166002900480156111b15780601f10611186576101008083540402835291602001916111b1565b820191906000526020600020905b81548152906001019060200180831161119457829003601f168201915b5050505050905090565b60006111c682611516565b905080341461123d576040517f08c379a00000000000000000000000000000000000000000000000000000000081526004018080602001828103825260148152602001807f496e636f72726563742076616c75652073656e7400000000000000000000000081525060200191505060405180910390fd5b600073ffffffffffffffffffffffffffffffffffffffff163373ffffffffffffffffffffffffffffffffffffffff1614156112e0576040517f08c379a000000000000000000000000000000000000000000000000000000000815260040180806020018281038252601f8152602001807f45524332303a206d696e7420746f20746865207a65726f20616464726573730081525060200191505060405180910390fd5b6112f58260015461170390919063ffffffff16565b60018190555061134d82600560003373ffffffffffffffffffffffffffffffffffffffff1673ffffffffffffffffffffffffffffffffffffffff1681526020019081526020016000205461170390919063ffffffff16565b600560003373ffffffffffffffffffffffffffffffffffffffff1673ffffffffffffffffffffffffffffffffffffffff168152602001908152602001600020819055503373ffffffffffffffffffffffffffffffffffffffff16600073ffffffffffffffffffffffffffffffffffffffff167fddf252ad1be2c89b69c2b068fc378daa952ba7f163c4a11628f55a4df523b3ef846040518082815260200191505060405180910390a35050565b600081600560003373ffffffffffffffffffffffffffffffffffffffff1673ffffffffffffffffffffffffffffffffffffffff16815260200190815260200160002054106114e55781600560003373ffffffffffffffffffffffffffffffffffffffff1673ffffffffffffffffffffffffffffffffffffffff1681526020019081526020016000206000828254039250508190555081600560008573ffffffffffffffffffffffffffffffffffffffff1673ffffffffffffffffffffffffffffffffffffffff16815260200190815260200160002060008282540192505081905550600190506114ea565b600090505b92915050565b600460019054906101000a900473ffffffffffffffffffffffffffffffffffffffff1681565b60008060016115236108db565b03905060006702c68af0bb14000090506000600190505b6001850181101561156257808301662386f26fc100000282019150808060010191505061153a565b508092505050919050565b6000600660008473ffffffffffffffffffffffffffffffffffffffff1673ffffffffffffffffffffffffffffffffffffffff16815260200190815260200160002060008373ffffffffffffffffffffffffffffffffffffffff1673ffffffffffffffffffffffffffffffffffffffff16815260200190815260200160002054905092915050565b6115fc611069565b61166e576040517f08c379a00000000000000000000000000000000000000000000000000000000081526004018080602001828103825260208152602001807f4f776e61626c653a2063616c6c6572206973206e6f7420746865206f776e657281525060200191505060405180910390fd5b6116778161178b565b50565b6000828211156116f2576040517f08c379a000000000000000000000000000000000000000000000000000000000815260040180806020018281038252601e8152602001807f536166654d6174683a207375627472616374696f6e206f766572666c6f77000081525060200191505060405180910390fd5b600082840390508091505092915050565b600080828401905083811015611781576040517f08c379a000000000000000000000000000000000000000000000000000000000815260040180806020018281038252601b8152602001807f536166654d6174683a206164646974696f6e206f766572666c6f77000000000081525060200191505060405180910390fd5b8091505092915050565b600073ffffffffffffffffffffffffffffffffffffffff168173ffffffffffffffffffffffffffffffffffffffff161415611811576040517f08c379a00000000000000000000000000000000000000000000000000000000081526004018080602001828103825260268152602001806118d06026913960400191505060405180910390fd5b8073ffffffffffffffffffffffffffffffffffffffff166000809054906101000a900473ffffffffffffffffffffffffffffffffffffffff1673ffffffffffffffffffffffffffffffffffffffff167f8be0079c531659141344cd1fd0a4f28419497f9722a3daafe3b4186f6b6457e060405160405180910390a3806000806101000a81548173ffffffffffffffffffffffffffffffffffffffff021916908373ffffffffffffffffffffffffffffffffffffffff1602179055505056fe4f776e61626c653a206e6577206f776e657220697320746865207a65726f206164647265737363616e6e6f74206275726e206d6f726520746f6b656e73207468616e206f776e65644f6e6c7920746865207265676973747279206f776e65722063616e2064657374726f792074686520636f6e7472616374416c6c20434f20746f6b656e73206d7573742062656c6f6e6720746f20746865207265676973747279206f776e65726f6e6c7920746865207265676973747279206f776e65722063616e206275726e20746f6b656e73a165627a7a7230582082513cfb48b0278b45336b1ea7daad8a324f824944cea0f205eb31b35ebade0e0029",
  "source": "pragma solidity ^0.5.0;\r\n\r\nimport \"openzeppelin-solidity/contracts/ownership/Ownable.sol\";\r\nimport \"openzeppelin-solidity/contracts/token/ERC20/IERC20.sol\";\r\nimport \"openzeppelin-solidity/contracts/math/SafeMath.sol\";\r\n\r\n\r\ncontract CoToken is IERC20, Ownable {\r\n    using SafeMath for uint256;\r\n\r\n    uint256 _totalSupply;\r\n    string _name;\r\n    string _symbol;\r\n    uint8 _decimals;\r\n    address public _owner;\r\n\r\n    mapping(address => uint256) balances;\r\n    mapping(address => mapping(address => uint256)) approvedTransfers;\r\n\r\n    constructor(uint256 totalSupply, string memory name, string memory symbol, uint8 decimals) public {\r\n        _totalSupply = totalSupply;\r\n        balances[msg.sender] = totalSupply;\r\n        _name = name;\r\n        _symbol = symbol;\r\n        _decimals = decimals;\r\n        _owner = msg.sender;\r\n    }\r\n    \r\n    function name() public view returns (string memory){\r\n        return _name;\r\n    }\r\n\r\n    function symbol() public view returns (string memory) {\r\n        return _symbol;\r\n    }\r\n\r\n    function decimals() public view returns (uint8) {\r\n        return _decimals;\r\n    }\r\n\r\n    function totalSupply() public view returns (uint256) {\r\n        return _totalSupply;\r\n    }\r\n\r\n    function balanceOf(address account) external view returns (uint256){\r\n        return balances[account];\r\n    }\r\n\r\n    function transfer(address recipient, uint256 amount) external returns (bool){\r\n        if (balances[msg.sender] >= amount) {\r\n            balances[msg.sender] -= amount;\r\n            balances[recipient] += amount;\r\n            return true;\r\n        }\r\n        else {\r\n            return false;\r\n        }\r\n    }\r\n\r\n    function approve(address spender, uint256 amount) external returns (bool){\r\n        if (balances[msg.sender] > amount) {\r\n            approvedTransfers[msg.sender][spender] = amount;\r\n            return true;\r\n        }\r\n        else {\r\n            return false;\r\n        }\r\n    }\r\n\r\n    function transferFrom(address sender, address recipient, uint256 amount) external returns (bool){\r\n        if (approvedTransfers[sender][recipient] >= amount) {\r\n            if (balances[sender] >= amount) {\r\n                balances[sender] -= amount;\r\n                balances[recipient] += amount;\r\n                approvedTransfers[sender][recipient] -= amount;\r\n                return true;\r\n            }\r\n            else {\r\n                return false;\r\n            }\r\n        }\r\n        else {\r\n            return false;\r\n        }\r\n    }\r\n\r\n    function allowance(address owner, address spender) external view returns (uint256){\r\n        return approvedTransfers[owner][spender];\r\n    }\r\n\r\n    /// @param _n number of tokens wanting to be purchased\r\n    function buyPrice(uint256 _n) public view returns (uint256) {\r\n        uint256 _supply = totalSupply() - 1;\r\n        // if there are n tokens in issue, the price for the (n+1)th token is 0.01n+0.2 eth\r\n        uint256 _totalPrice = 0.2*10**18 wei;\r\n        for (uint i = 1; i < _n+1; i++) {\r\n            _totalPrice += 0.01*(10**18)*(_supply+i);\r\n        }\r\n        return _totalPrice;\r\n    }\r\n\r\n    function sellPrice(uint256 _n) public view returns (uint256) {\r\n        uint256 _newSupply = totalSupply() - _n - 1;\r\n        uint256 _totalPrice = 0.2*10**18 wei;\r\n        for (uint i = 1; i < _n+1; i++) {\r\n            _totalPrice += 0.01*(10**18)*(_newSupply+i);\r\n        }\r\n        return _totalPrice;\r\n    }\r\n\r\n    function mint(uint256 _n) public payable {\r\n        uint256 _price = buyPrice(_n);\r\n        require(msg.value == _price, \"Incorrect value sent\");\r\n        require(msg.sender != address(0), \"ERC20: mint to the zero address\");\r\n\r\n        _totalSupply = _totalSupply.add(_n);\r\n        balances[msg.sender] = balances[msg.sender].add(_n);\r\n        emit Transfer(address(0), msg.sender, _n);    }\r\n\r\n    function burn(uint256 _n) public {\r\n        // uint256 _price = sellPrice(_n);\r\n        require(msg.sender == _owner, \"only the registry owner can burn tokens\");\r\n        require(balances[msg.sender] >= _n, \"cannot burn more tokens than owned\");\r\n        _totalSupply = _totalSupply.sub(_n);\r\n        balances[msg.sender] = balances[msg.sender].sub(_n);\r\n\r\n        emit Transfer(msg.sender, address(0), _n);\r\n    }\r\n\r\n    function destroy() public {\r\n        require(msg.sender == _owner, \"Only the registry owner can destroy the contract\");\r\n        require(balances[msg.sender] == totalSupply(), \"All CO tokens must belong to the registry owner\");\r\n        selfdestruct(address(0));\r\n    }\r\n\r\n}",
  "sourcePath": "D:\\FTC_Exam\\2.3\\contracts\\CoToken.sol",
  "compiler": {
    "name": "solc",
    "version": "0.5.8+commit.23d335f2.Emscripten.clang"
  },
  "schemaVersion": "3.0.11",
  "updatedAt": "2019-08-04T07:21:32.278Z",
  "devdoc": {
    "methods": {
      "buyPrice(uint256)": {
        "params": {
          "_n": "number of tokens wanting to be purchased"
        }
      },
      "isOwner()": {
        "details": "Returns true if the caller is the current owner."
      },
      "owner()": {
        "details": "Returns the address of the current owner."
      },
      "renounceOwnership()": {
        "details": "Leaves the contract without owner. It will not be possible to call `onlyOwner` functions anymore. Can only be called by the current owner.     * > Note: Renouncing ownership will leave the contract without an owner, thereby removing any functionality that is only available to the owner."
      },
      "transferOwnership(address)": {
        "details": "Transfers ownership of the contract to a new account (`newOwner`). Can only be called by the current owner."
      }
    }
  },
  "userdoc": {
    "methods": {}
  }
}