{
  "contractName": "CoToken",
  "abi": [
    {
      "constant": false,
      "inputs": [],
      "name": "renounceOwnership",
      "outputs": [],
      "payable": false,
      "stateMutability": "nonpayable",
      "type": "function"
    },
    {
      "constant": true,
      "inputs": [],
      "name": "owner",
      "outputs": [
        {
          "name": "",
          "type": "address"
        }
      ],
      "payable": false,
      "stateMutability": "view",
      "type": "function"
    },
    {
      "constant": true,
      "inputs": [],
      "name": "isOwner",
      "outputs": [
        {
          "name": "",
          "type": "bool"
        }
      ],
      "payable": false,
      "stateMutability": "view",
      "type": "function"
    },
    {
      "constant": false,
      "inputs": [
        {
          "name": "newOwner",
          "type": "address"
        }
      ],
      "name": "transferOwnership",
      "outputs": [],
      "payable": false,
      "stateMutability": "nonpayable",
      "type": "function"
    },
    {
      "inputs": [
        {
          "name": "name",
          "type": "string"
        },
        {
          "name": "symbol",
          "type": "string"
        },
        {
          "name": "decimals",
          "type": "uint8"
        }
      ],
      "payable": false,
      "stateMutability": "nonpayable",
      "type": "constructor"
    },
    {
      "anonymous": false,
      "inputs": [
        {
          "indexed": true,
          "name": "previousOwner",
          "type": "address"
        },
        {
          "indexed": true,
          "name": "newOwner",
          "type": "address"
        }
      ],
      "name": "OwnershipTransferred",
      "type": "event"
    },
    {
      "anonymous": false,
      "inputs": [
        {
          "indexed": true,
          "name": "from",
          "type": "address"
        },
        {
          "indexed": true,
          "name": "to",
          "type": "address"
        },
        {
          "indexed": false,
          "name": "value",
          "type": "uint256"
        }
      ],
      "name": "Transfer",
      "type": "event"
    },
    {
      "anonymous": false,
      "inputs": [
        {
          "indexed": true,
          "name": "owner",
          "type": "address"
        },
        {
          "indexed": true,
          "name": "spender",
          "type": "address"
        },
        {
          "indexed": false,
          "name": "value",
          "type": "uint256"
        }
      ],
      "name": "Approval",
      "type": "event"
    },
    {
      "constant": true,
      "inputs": [],
      "name": "name",
      "outputs": [
        {
          "name": "",
          "type": "string"
        }
      ],
      "payable": false,
      "stateMutability": "view",
      "type": "function"
    },
    {
      "constant": true,
      "inputs": [],
      "name": "symbol",
      "outputs": [
        {
          "name": "",
          "type": "string"
        }
      ],
      "payable": false,
      "stateMutability": "view",
      "type": "function"
    },
    {
      "constant": true,
      "inputs": [],
      "name": "decimals",
      "outputs": [
        {
          "name": "",
          "type": "uint8"
        }
      ],
      "payable": false,
      "stateMutability": "view",
      "type": "function"
    },
    {
      "constant": true,
      "inputs": [],
      "name": "totalSupply",
      "outputs": [
        {
          "name": "",
          "type": "uint256"
        }
      ],
      "payable": false,
      "stateMutability": "view",
      "type": "function"
    },
    {
      "constant": true,
      "inputs": [
        {
          "name": "account",
          "type": "address"
        }
      ],
      "name": "balanceOf",
      "outputs": [
        {
          "name": "",
          "type": "uint256"
        }
      ],
      "payable": false,
      "stateMutability": "view",
      "type": "function"
    },
    {
      "constant": false,
      "inputs": [
        {
          "name": "recipient",
          "type": "address"
        },
        {
          "name": "amount",
          "type": "uint256"
        }
      ],
      "name": "transfer",
      "outputs": [
        {
          "name": "",
          "type": "bool"
        }
      ],
      "payable": false,
      "stateMutability": "nonpayable",
      "type": "function"
    },
    {
      "constant": false,
      "inputs": [
        {
          "name": "spender",
          "type": "address"
        },
        {
          "name": "amount",
          "type": "uint256"
        }
      ],
      "name": "approve",
      "outputs": [
        {
          "name": "",
          "type": "bool"
        }
      ],
      "payable": false,
      "stateMutability": "nonpayable",
      "type": "function"
    },
    {
      "constant": false,
      "inputs": [
        {
          "name": "sender",
          "type": "address"
        },
        {
          "name": "recipient",
          "type": "address"
        },
        {
          "name": "amount",
          "type": "uint256"
        }
      ],
      "name": "transferFrom",
      "outputs": [
        {
          "name": "",
          "type": "bool"
        }
      ],
      "payable": false,
      "stateMutability": "nonpayable",
      "type": "function"
    },
    {
      "constant": true,
      "inputs": [
        {
          "name": "owner",
          "type": "address"
        },
        {
          "name": "spender",
          "type": "address"
        }
      ],
      "name": "allowance",
      "outputs": [
        {
          "name": "",
          "type": "uint256"
        }
      ],
      "payable": false,
      "stateMutability": "view",
      "type": "function"
    },
    {
      "constant": true,
      "inputs": [
        {
          "name": "_n",
          "type": "uint256"
        }
      ],
      "name": "buyPrice",
      "outputs": [
        {
          "name": "",
          "type": "uint256"
        }
      ],
      "payable": false,
      "stateMutability": "view",
      "type": "function"
    },
    {
      "constant": true,
      "inputs": [
        {
          "name": "_n",
          "type": "uint256"
        }
      ],
      "name": "sellPrice",
      "outputs": [
        {
          "name": "",
          "type": "uint256"
        }
      ],
      "payable": false,
      "stateMutability": "view",
      "type": "function"
    },
    {
      "constant": false,
      "inputs": [
        {
          "name": "_n",
          "type": "uint256"
        }
      ],
      "name": "mint",
      "outputs": [],
      "payable": true,
      "stateMutability": "payable",
      "type": "function"
    },
    {
      "constant": false,
      "inputs": [
        {
          "name": "_n",
          "type": "uint256"
        }
      ],
      "name": "burn",
      "outputs": [],
      "payable": false,
      "stateMutability": "nonpayable",
      "type": "function"
    },
    {
      "constant": false,
      "inputs": [],
      "name": "destroy",
      "outputs": [],
      "payable": false,
      "stateMutability": "nonpayable",
      "type": "function"
    }
  ],
  "bytecode": "0x60806040523480156200001157600080fd5b5060405162001da138038062001da1833981018060405260608110156200003757600080fd5b8101908080516401000000008111156200005057600080fd5b828101905060208101848111156200006757600080fd5b81518560018202830111640100000000821117156200008557600080fd5b50509291906020018051640100000000811115620000a257600080fd5b82810190506020810184811115620000b957600080fd5b8151856001820283011164010000000082111715620000d757600080fd5b505092919060200180519060200190929190505050336000806101000a81548173ffffffffffffffffffffffffffffffffffffffff021916908373ffffffffffffffffffffffffffffffffffffffff1602179055506000809054906101000a900473ffffffffffffffffffffffffffffffffffffffff1673ffffffffffffffffffffffffffffffffffffffff16600073ffffffffffffffffffffffffffffffffffffffff167f8be0079c531659141344cd1fd0a4f28419497f9722a3daafe3b4186f6b6457e060405160405180910390a360646001819055506064600560003373ffffffffffffffffffffffffffffffffffffffff1673ffffffffffffffffffffffffffffffffffffffff1681526020019081526020016000208190555082600290805190602001906200020d92919062000294565b5081600390805190602001906200022692919062000294565b5080600460006101000a81548160ff021916908360ff16021790555033600460016101000a81548173ffffffffffffffffffffffffffffffffffffffff021916908373ffffffffffffffffffffffffffffffffffffffff160217905550600060078190555050505062000343565b828054600181600116156101000203166002900490600052602060002090601f016020900481019282601f10620002d757805160ff191683800117855562000308565b8280016001018555821562000308579182015b8281111562000307578251825591602001919060010190620002ea565b5b5090506200031791906200031b565b5090565b6200034091905b808211156200033c57600081600090555060010162000322565b5090565b90565b611a4e80620003536000396000f3fe6080604052600436106101095760003560e01c80638da5cb5b11610095578063a0712d6811610064578063a0712d6814610533578063a9059cbb14610561578063c4dbf622146105d4578063dd62ed3e14610623578063f2fde38b146106a857610109565b80638da5cb5b146103ce5780638f32d59b14610425578063911e279c1461045457806395d89b41146104a357610109565b8063313ce567116100dc578063313ce567146102cf57806342966c681461030057806370a082311461033b578063715018a6146103a057806383197ef0146103b757610109565b806306fdde031461010e578063095ea7b31461019e57806318160ddd1461021157806323b872dd1461023c575b600080fd5b34801561011a57600080fd5b506101236106f9565b6040518080602001828103825283818151815260200191508051906020019080838360005b83811015610163578082015181840152602081019050610148565b50505050905090810190601f1680156101905780820380516001836020036101000a031916815260200191505b509250505060405180910390f35b3480156101aa57600080fd5b506101f7600480360360408110156101c157600080fd5b81019080803573ffffffffffffffffffffffffffffffffffffffff1690602001909291908035906020019092919050505061079b565b604051808215151515815260200191505060405180910390f35b34801561021d57600080fd5b50610226610879565b6040518082815260200191505060405180910390f35b34801561024857600080fd5b506102b56004803603606081101561025f57600080fd5b81019080803573ffffffffffffffffffffffffffffffffffffffff169060200190929190803573ffffffffffffffffffffffffffffffffffffffff16906020019092919080359060200190929190505050610883565b604051808215151515815260200191505060405180910390f35b3480156102db57600080fd5b506102e4610a90565b604051808260ff1660ff16815260200191505060405180910390f35b34801561030c57600080fd5b506103396004803603602081101561032357600080fd5b8101908080359060200190929190505050610aa7565b005b34801561034757600080fd5b5061038a6004803603602081101561035e57600080fd5b81019080803573ffffffffffffffffffffffffffffffffffffffff169060200190929190505050610cec565b6040518082815260200191505060405180910390f35b3480156103ac57600080fd5b506103b5610d35565b005b3480156103c357600080fd5b506103cc610e6e565b005b3480156103da57600080fd5b506103e361102a565b604051808273ffffffffffffffffffffffffffffffffffffffff1673ffffffffffffffffffffffffffffffffffffffff16815260200191505060405180910390f35b34801561043157600080fd5b5061043a611053565b604051808215151515815260200191505060405180910390f35b34801561046057600080fd5b5061048d6004803603602081101561047757600080fd5b81019080803590602001909291905050506110aa565b6040518082815260200191505060405180910390f35b3480156104af57600080fd5b506104b86110f7565b6040518080602001828103825283818151815260200191508051906020019080838360005b838110156104f85780820151818401526020810190506104dd565b50505050905090810190601f1680156105255780820380516001836020036101000a031916815260200191505b509250505060405180910390f35b61055f6004803603602081101561054957600080fd5b8101908080359060200190929190505050611199565b005b34801561056d57600080fd5b506105ba6004803603604081101561058457600080fd5b81019080803573ffffffffffffffffffffffffffffffffffffffff169060200190929190803590602001909291905050506114b1565b604051808215151515815260200191505060405180910390f35b3480156105e057600080fd5b5061060d600480360360208110156105f757600080fd5b81019080803590602001909291905050506115a7565b6040518082815260200191505060405180910390f35b34801561062f57600080fd5b506106926004803603604081101561064657600080fd5b81019080803573ffffffffffffffffffffffffffffffffffffffff169060200190929190803573ffffffffffffffffffffffffffffffffffffffff1690602001909291905050506115f2565b6040518082815260200191505060405180910390f35b3480156106b457600080fd5b506106f7600480360360208110156106cb57600080fd5b81019080803573ffffffffffffffffffffffffffffffffffffffff169060200190929190505050611679565b005b606060028054600181600116156101000203166002900480601f0160208091040260200160405190810160405280929190818152602001828054600181600116156101000203166002900480156107915780601f1061076657610100808354040283529160200191610791565b820191906000526020600020905b81548152906001019060200180831161077457829003601f168201915b5050505050905090565b600081600560003373ffffffffffffffffffffffffffffffffffffffff1673ffffffffffffffffffffffffffffffffffffffff16815260200190815260200160002054111561086e5781600660003373ffffffffffffffffffffffffffffffffffffffff1673ffffffffffffffffffffffffffffffffffffffff16815260200190815260200160002060008573ffffffffffffffffffffffffffffffffffffffff1673ffffffffffffffffffffffffffffffffffffffff1681526020019081526020016000208190555060019050610873565b600090505b92915050565b6000600154905090565b600081600660008673ffffffffffffffffffffffffffffffffffffffff1673ffffffffffffffffffffffffffffffffffffffff16815260200190815260200160002060008573ffffffffffffffffffffffffffffffffffffffff1673ffffffffffffffffffffffffffffffffffffffff1681526020019081526020016000205410610a845781600560008673ffffffffffffffffffffffffffffffffffffffff1673ffffffffffffffffffffffffffffffffffffffff1681526020019081526020016000205410610a7b5781600560008673ffffffffffffffffffffffffffffffffffffffff1673ffffffffffffffffffffffffffffffffffffffff1681526020019081526020016000206000828254039250508190555081600560008573ffffffffffffffffffffffffffffffffffffffff1673ffffffffffffffffffffffffffffffffffffffff1681526020019081526020016000206000828254019250508190555081600660008673ffffffffffffffffffffffffffffffffffffffff1673ffffffffffffffffffffffffffffffffffffffff16815260200190815260200160002060008573ffffffffffffffffffffffffffffffffffffffff1673ffffffffffffffffffffffffffffffffffffffff1681526020019081526020016000206000828254039250508190555060019050610a89565b60009050610a89565b600090505b9392505050565b6000600460009054906101000a900460ff16905090565b610aaf611053565b610b21576040517f08c379a00000000000000000000000000000000000000000000000000000000081526004018080602001828103825260208152602001807f4f776e61626c653a2063616c6c6572206973206e6f7420746865206f776e657281525060200191505060405180910390fd5b610b2961102a565b73ffffffffffffffffffffffffffffffffffffffff163373ffffffffffffffffffffffffffffffffffffffff1614610bac576040517f08c379a00000000000000000000000000000000000000000000000000000000081526004018080602001828103825260278152602001806119fc6027913960400191505060405180910390fd5b80600560003373ffffffffffffffffffffffffffffffffffffffff1673ffffffffffffffffffffffffffffffffffffffff168152602001908152602001600020541015610c44576040517f08c379a000000000000000000000000000000000000000000000000000000000815260040180806020018281038252602281526020018061197b6022913960400191505060405180910390fd5b80600760008282540392505081905550610ca681600560003373ffffffffffffffffffffffffffffffffffffffff1673ffffffffffffffffffffffffffffffffffffffff168152602001908152602001600020546116ff90919063ffffffff16565b600560003373ffffffffffffffffffffffffffffffffffffffff1673ffffffffffffffffffffffffffffffffffffffff1681526020019081526020016000208190555050565b6000600560008373ffffffffffffffffffffffffffffffffffffffff1673ffffffffffffffffffffffffffffffffffffffff168152602001908152602001600020549050919050565b610d3d611053565b610daf576040517f08c379a00000000000000000000000000000000000000000000000000000000081526004018080602001828103825260208152602001807f4f776e61626c653a2063616c6c6572206973206e6f7420746865206f776e657281525060200191505060405180910390fd5b600073ffffffffffffffffffffffffffffffffffffffff166000809054906101000a900473ffffffffffffffffffffffffffffffffffffffff1673ffffffffffffffffffffffffffffffffffffffff167f8be0079c531659141344cd1fd0a4f28419497f9722a3daafe3b4186f6b6457e060405160405180910390a360008060006101000a81548173ffffffffffffffffffffffffffffffffffffffff021916908373ffffffffffffffffffffffffffffffffffffffff160217905550565b610e76611053565b610ee8576040517f08c379a00000000000000000000000000000000000000000000000000000000081526004018080602001828103825260208152602001807f4f776e61626c653a2063616c6c6572206973206e6f7420746865206f776e657281525060200191505060405180910390fd5b610ef061102a565b73ffffffffffffffffffffffffffffffffffffffff163373ffffffffffffffffffffffffffffffffffffffff1614610f73576040517f08c379a000000000000000000000000000000000000000000000000000000000815260040180806020018281038252603081526020018061199d6030913960400191505060405180910390fd5b610f7b610879565b600560003373ffffffffffffffffffffffffffffffffffffffff1673ffffffffffffffffffffffffffffffffffffffff1681526020019081526020016000205414611011576040517f08c379a000000000000000000000000000000000000000000000000000000000815260040180806020018281038252602f8152602001806119cd602f913960400191505060405180910390fd5b3373ffffffffffffffffffffffffffffffffffffffff16ff5b60008060009054906101000a900473ffffffffffffffffffffffffffffffffffffffff16905090565b60008060009054906101000a900473ffffffffffffffffffffffffffffffffffffffff1673ffffffffffffffffffffffffffffffffffffffff163373ffffffffffffffffffffffffffffffffffffffff1614905090565b6000808260075403905060006702c68af0bb140000905060008090505b848110156110ec57808301662386f26fc10000028201915080806001019150506110c7565b508092505050919050565b606060038054600181600116156101000203166002900480601f01602080910402602001604051908101604052809291908181526020018280546001816001161561010002031660029004801561118f5780601f106111645761010080835404028352916020019161118f565b820191906000526020600020905b81548152906001019060200180831161117257829003601f168201915b5050505050905090565b60006111a4826115a7565b905080341461121b576040517f08c379a00000000000000000000000000000000000000000000000000000000081526004018080602001828103825260148152602001807f496e636f72726563742076616c75652073656e7400000000000000000000000081525060200191505060405180910390fd5b600073ffffffffffffffffffffffffffffffffffffffff163373ffffffffffffffffffffffffffffffffffffffff1614156112be576040517f08c379a000000000000000000000000000000000000000000000000000000000815260040180806020018281038252601f8152602001807f45524332303a206d696e7420746f20746865207a65726f20616464726573730081525060200191505060405180910390fd5b61131082600560003373ffffffffffffffffffffffffffffffffffffffff1673ffffffffffffffffffffffffffffffffffffffff1681526020019081526020016000205461178890919063ffffffff16565b600560003373ffffffffffffffffffffffffffffffffffffffff1673ffffffffffffffffffffffffffffffffffffffff168152602001908152602001600020819055506113c78260056000600460019054906101000a900473ffffffffffffffffffffffffffffffffffffffff1673ffffffffffffffffffffffffffffffffffffffff1673ffffffffffffffffffffffffffffffffffffffff168152602001908152602001600020546116ff90919063ffffffff16565b60056000600460019054906101000a900473ffffffffffffffffffffffffffffffffffffffff1673ffffffffffffffffffffffffffffffffffffffff1673ffffffffffffffffffffffffffffffffffffffff168152602001908152602001600020819055506114418260075461178890919063ffffffff16565b6007819055503373ffffffffffffffffffffffffffffffffffffffff16600073ffffffffffffffffffffffffffffffffffffffff167fddf252ad1be2c89b69c2b068fc378daa952ba7f163c4a11628f55a4df523b3ef846040518082815260200191505060405180910390a35050565b600081600560003373ffffffffffffffffffffffffffffffffffffffff1673ffffffffffffffffffffffffffffffffffffffff168152602001908152602001600020541061159c5781600560003373ffffffffffffffffffffffffffffffffffffffff1673ffffffffffffffffffffffffffffffffffffffff1681526020019081526020016000206000828254039250508190555081600560008573ffffffffffffffffffffffffffffffffffffffff1673ffffffffffffffffffffffffffffffffffffffff16815260200190815260200160002060008282540192505081905550600190506115a1565b600090505b92915050565b600080600754905060006702c68af0bb140000905060008090505b848110156115e757808301662386f26fc10000028201915080806001019150506115c2565b508092505050919050565b6000600660008473ffffffffffffffffffffffffffffffffffffffff1673ffffffffffffffffffffffffffffffffffffffff16815260200190815260200160002060008373ffffffffffffffffffffffffffffffffffffffff1673ffffffffffffffffffffffffffffffffffffffff16815260200190815260200160002054905092915050565b611681611053565b6116f3576040517f08c379a00000000000000000000000000000000000000000000000000000000081526004018080602001828103825260208152602001807f4f776e61626c653a2063616c6c6572206973206e6f7420746865206f776e657281525060200191505060405180910390fd5b6116fc81611810565b50565b600082821115611777576040517f08c379a000000000000000000000000000000000000000000000000000000000815260040180806020018281038252601e8152602001807f536166654d6174683a207375627472616374696f6e206f766572666c6f77000081525060200191505060405180910390fd5b600082840390508091505092915050565b600080828401905083811015611806576040517f08c379a000000000000000000000000000000000000000000000000000000000815260040180806020018281038252601b8152602001807f536166654d6174683a206164646974696f6e206f766572666c6f77000000000081525060200191505060405180910390fd5b8091505092915050565b600073ffffffffffffffffffffffffffffffffffffffff168173ffffffffffffffffffffffffffffffffffffffff161415611896576040517f08c379a00000000000000000000000000000000000000000000000000000000081526004018080602001828103825260268152602001806119556026913960400191505060405180910390fd5b8073ffffffffffffffffffffffffffffffffffffffff166000809054906101000a900473ffffffffffffffffffffffffffffffffffffffff1673ffffffffffffffffffffffffffffffffffffffff167f8be0079c531659141344cd1fd0a4f28419497f9722a3daafe3b4186f6b6457e060405160405180910390a3806000806101000a81548173ffffffffffffffffffffffffffffffffffffffff021916908373ffffffffffffffffffffffffffffffffffffffff1602179055505056fe4f776e61626c653a206e6577206f776e657220697320746865207a65726f206164647265737363616e6e6f74206275726e206d6f726520746f6b656e73207468616e206f776e65644f6e6c7920746865207265676973747279206f776e65722063616e2064657374726f792074686520636f6e7472616374416c6c20434f20746f6b656e73206d7573742062656c6f6e6720746f20746865207265676973747279206f776e65726f6e6c7920746865207265676973747279206f776e65722063616e206275726e20746f6b656e73a165627a7a723058209c8ec30226b027bac1ec3b7e7cb77b507c5479b8dd66c986d2c3aeacf7a967ec0029",
  "source": "pragma solidity ^0.5.0;\r\n\r\nimport \"openzeppelin-solidity/contracts/ownership/Ownable.sol\";\r\nimport \"openzeppelin-solidity/contracts/token/ERC20/IERC20.sol\";\r\nimport \"openzeppelin-solidity/contracts/math/SafeMath.sol\";\r\n\r\n\r\ncontract CoToken is IERC20, Ownable {\r\n    using SafeMath for uint256;\r\n\r\n    uint256 _totalSupply;\r\n    string _name;\r\n    string _symbol;\r\n    uint8 _decimals;\r\n    address _owner;\r\n\r\n    mapping(address => uint256) balances;\r\n    mapping(address => mapping(address => uint256)) approvedTransfers;\r\n    uint256 tokensSold;\r\n\r\n    constructor(string memory name, string memory symbol, uint8 decimals) public {\r\n        _totalSupply = 100;\r\n        balances[msg.sender] = 100;\r\n        _name = name;\r\n        _symbol = symbol;\r\n        _decimals = decimals;\r\n        _owner = msg.sender;\r\n        tokensSold = 0;\r\n    }\r\n    \r\n    function name() public view returns (string memory){\r\n        return _name;\r\n    }\r\n\r\n    function symbol() public view returns (string memory) {\r\n        return _symbol;\r\n    }\r\n\r\n    function decimals() public view returns (uint8) {\r\n        return _decimals;\r\n    }\r\n\r\n    function totalSupply() public view returns (uint256) {\r\n        return _totalSupply;\r\n    }\r\n\r\n    function balanceOf(address account) external view returns (uint256){\r\n        return balances[account];\r\n    }\r\n\r\n    function transfer(address recipient, uint256 amount) external returns (bool){\r\n        if (balances[msg.sender] >= amount) {\r\n            balances[msg.sender] -= amount;\r\n            balances[recipient] += amount;\r\n            return true;\r\n        }\r\n        else {\r\n            return false;\r\n        }\r\n    }\r\n\r\n    function approve(address spender, uint256 amount) external returns (bool){\r\n        if (balances[msg.sender] > amount) {\r\n            approvedTransfers[msg.sender][spender] = amount;\r\n            return true;\r\n        }\r\n        else {\r\n            return false;\r\n        }\r\n    }\r\n\r\n    function transferFrom(address sender, address recipient, uint256 amount) external returns (bool){\r\n        if (approvedTransfers[sender][recipient] >= amount) {\r\n            if (balances[sender] >= amount) {\r\n                balances[sender] -= amount;\r\n                balances[recipient] += amount;\r\n                approvedTransfers[sender][recipient] -= amount;\r\n                return true;\r\n            }\r\n            else {\r\n                return false;\r\n            }\r\n        }\r\n        else {\r\n            return false;\r\n        }\r\n    }\r\n\r\n    function allowance(address owner, address spender) external view returns (uint256){\r\n        return approvedTransfers[owner][spender];\r\n    }\r\n\r\n    /// @param _n number of tokens wanting to be purchased\r\n    function buyPrice(uint256 _n) public view returns (uint256) {\r\n        // uint256 _supply = totalSupply() - 1;\r\n        uint256 _supply = tokensSold;\r\n        // if there are n tokens in issue, the price for the (n+1)th token is 0.01n+0.2 eth\r\n        uint256 _totalPrice = 0.2*10**18 wei;\r\n        for (uint i = 0; i < _n; i++) {\r\n            _totalPrice += 0.01*(10**18)*(_supply+i);\r\n        }\r\n        return _totalPrice;\r\n    }\r\n\r\n    function sellPrice(uint256 _n) public view returns (uint256) {\r\n        // uint256 _newSupply = totalSupply() - _n - 1;\r\n        uint256 _newSupply = tokensSold - _n;\r\n        uint256 _totalPrice = 0.2*10**18 wei;\r\n        for (uint i = 0; i < _n; i++) {\r\n            _totalPrice += 0.01*(10**18)*(_newSupply+i);\r\n        }\r\n        return _totalPrice;\r\n    }\r\n\r\n    function mint(uint256 _n) public payable {\r\n        uint256 _price = buyPrice(_n);\r\n        require(msg.value == _price, \"Incorrect value sent\");\r\n        require(msg.sender != address(0), \"ERC20: mint to the zero address\");\r\n        \r\n        // _totalSupply = _totalSupply.add(_n);\r\n        balances[msg.sender] = balances[msg.sender].add(_n);\r\n        balances[_owner] = balances[_owner].sub(_n);\r\n        tokensSold = tokensSold.add(_n);\r\n        emit Transfer(address(0), msg.sender, _n);\r\n    }\r\n\r\n    function burn(uint256 _n) public onlyOwner {\r\n        // uint256 _price = sellPrice(_n);\r\n        require(msg.sender == owner(), \"only the registry owner can burn tokens\");\r\n        require(balances[msg.sender] >= _n, \"cannot burn more tokens than owned\");\r\n        // _totalSupply = _totalSupply.sub(_n);\r\n        tokensSold -= _n;\r\n        balances[msg.sender] = balances[msg.sender].sub(_n);\r\n\r\n        // emit Transfer(msg.sender, _owner, _n);\r\n    }\r\n\r\n    function destroy() public onlyOwner {\r\n        require(msg.sender == owner(), \"Only the registry owner can destroy the contract\");\r\n        require(balances[msg.sender] == totalSupply(), \"All CO tokens must belong to the registry owner\");\r\n        // require(tokensSold == 0, \"All CO tokens must belong to the registry owner\");\r\n        selfdestruct(msg.sender);\r\n    }\r\n\r\n}",
  "sourcePath": "D:/FTC-Exam/Question 2.2/contracts/CoToken.sol",
  "compiler": {
    "name": "solc",
    "version": "0.5.8+commit.23d335f2.Emscripten.clang"
  },
  "schemaVersion": "3.0.11",
  "updatedAt": "2019-08-05T07:24:41.911Z",
  "devdoc": {
    "methods": {
      "buyPrice(uint256)": {
        "params": {
          "_n": "number of tokens wanting to be purchased"
        }
      },
      "isOwner()": {
        "details": "Returns true if the caller is the current owner."
      },
      "owner()": {
        "details": "Returns the address of the current owner."
      },
      "renounceOwnership()": {
        "details": "Leaves the contract without owner. It will not be possible to call `onlyOwner` functions anymore. Can only be called by the current owner.     * > Note: Renouncing ownership will leave the contract without an owner, thereby removing any functionality that is only available to the owner."
      },
      "transferOwnership(address)": {
        "details": "Transfers ownership of the contract to a new account (`newOwner`). Can only be called by the current owner."
      }
    }
  },
  "userdoc": {
    "methods": {}
  }
}